:020000040000FA
:1000000032EC00F0000E106E8050030B106023EFF6
:1000100000F0010E106E8050030B10601BEF00F01B
:10002000020E106E8050030B10601FEF00F0030EE5
:100030008A6E02EF00F0010E8A6E02EF00F0020EEF
:100040008A6E02EF00F0000E8A6E02EF00F0070EDB
:10005000606FEC0E706F702F2BEF00F0602F29EFA8
:1000600000F012000F0EC16E070EB46EFF0E926EFE
:0E007000F00E936EFF0E946EFF0E956E120052
:02007E00000080
:020000040030CA
:0100000000FF
:010001000CF2
:0100020019E4
:010003001EDE
:010005008377
:010006008574
:010008000FE8
:01000900C036
:01000A000FE6
:01000B00E014
:01000C000FE4
:01000D0040B2
:00000001FF
