:0400000007EF00F016
:0A0008002A8208ED04F02CEF05F049
:0F08000000C0F9A4B0999282F88098BFFF000061
:100810000600FACF01F0FBCF02F0E9CF03F0EACFF8
:1008200004F0E1CF05F0E2CF06F0D9CF07F0DACF40
:1008300008F0F3CF09F0F4CF0AF0F6CF0BF0F7CFC2
:100840000CF0F8CF0DF0F5CF0EF02AC00FF02BC052
:1008500010F02CC011F02DC012F09EA00ED0CF8E43
:100860009E90274A282A100E275C270E2858D8A0C9
:1008700004D0000E286E000E276EF2A406D0780E6B
:10088000D66EEC0ED76EF294298012C02DF011C0F6
:100890002CF010C02BF00FC02AF00EC0F5FF0DC0D9
:1008A000F8FF0CC0F7FF0BC0F6FF0AC0F4FF09C049
:1008B000F3FF08C0DAFF07C0D9FF06C0E2FF05C09A
:1008C000E1FF04C0EAFF03C0E9FF02C0FBFF01C073
:1008D000FAFF2A9211001AC013F01BC014F01EC0B8
:1008E00015F00B0E166E64EC05F01D5004E10A0EB7
:1008F0001C5CD8A021D01CC013F01DC014F0000E49
:10090000166E0A0E156ED6EC04F013501AC0D9FFFD
:100910001BC0DAFFDF6E1A4A1B2A1CC013F01DC071
:1009200014F0000E166E0A0E156EADEC04F013C036
:100930001CF014C01DF0D9D71CC013F01DC014F05A
:10094000000E166E0A0E156ED6EC04F013501AC087
:10095000D9FF1BC0DAFFDF6E1200000E186E000E0A
:10096000176E15501610D8B41CD0010E196E04D095
:10097000D89015361636192A16AEFAD7D8901736EB
:1009800018361550135C16501458D8A005D01550C1
:10099000135E1650145A1780D89016321532192E3D
:1009A000EDD717C013F018C014F012001550161030
:1009B000D8B418D0010E176E04D0D890153616365C
:1009C000172A16AEFAD71550135C16501458D8A033
:1009D00004D01550135E1650145AD89016321532A2
:1009E000172EF1D713C013F014C014F01200F29EAA
:1009F0000F0EC16E070EB46E9268000E956E000E5B
:100A0000936E8A688968880ED56EF294F28AF184B2
:100A10000B0ECD6E9E909D809F80D08EF29CF28EAC
:100A200029801200000E186E070E186401D0120003
:100A30008A6816C0D9FF17C0DAFFDF5072EC05F0E4
:100A40008C6E164A172A185056EC05F08A6E010E65
:100A50007EEC05F0182AE8D7120EF66E0B0EF76E34
:100A6000000EF86E0900F5CF27F00900F5CF28F049
:100A70002A902A92000EF86E080EF76E000141EFE0
:100A800005F0F7EC04F01F0E1A6E000E1B6E27C067
:100A90001CF028C01DF0080E1E6E6BEC04F01F0E3B
:100AA000166E000E176E12EC05F0EDD7156E15C020
:100AB00013F0010E146E132A02D0D8901436132EA0
:100AC000FCD71450FF0A12000AD01550010DF35044
:100AD0001324D96EF4501420DA6E16C0DFFF152EE1
:100AE000F4D71200136E1350010D010EF324F66EAD
:100AF000080EF420F76E0800F5501200136E05D0B2
:100B000000F029A0FDD7299013061350D8B4120085
:040B1000F8D7DE260E
:020000040020DA
:08000000FFFFFFFFFFFFFFFF00
:020000040030CA
:0E000000000C191EFF8181FF0FC00FE00F40A2
:00000001FF
