:0400000007EF00F016
:0A000800418208ED04F0ABEF06F0B2
:0F08000000C0F9A4B0999282F88098BFFF000061
:100810000600FACF07F0FBCF08F0E9CF09F0EACFE6
:100820000AF0E1CF0BF0E2CF0CF0D9CF0DF0DACF28
:100830000EF0F3CF0FF0F4CF10F0F6CF11F0F7CFAA
:1008400012F0F8CF13F0F5CF14F041C015F042C00C
:1008500016F043C017F044C018F09EA00BD0CF8E06
:100860009E903B50D8A406D03C0E056E000E066E3E
:100870005CEC06F0F2A41AD0780ED66EEC0ED76EB1
:10088000F29440803A2A384A392AF40E385C010E34
:100890003958D8A00BD0000E396E000E386E3F507C
:1008A000D8A402D0010E01D0000E3F6E80B215D048
:1008B000640E3A6412D0000E3A6E80A2FED73B500E
:1008C000D8A403D09D90010E06D0D8903B363BA60D
:1008D00015D09D80000E3B6E11D03B50D8A480BA3D
:1008E0000DD0640E3A640AD0000E3A6E3C0E016ED2
:1008F000000E026E3BC003F0D6EC05F018C044F0C9
:1009000017C043F016C042F015C041F014C0F5FF07
:1009100013C0F8FF12C0F7FF11C0F6FF10C0F4FFBC
:100920000FC0F3FF0EC0DAFF0DC0D9FF0CC0E2FF0D
:100930000BC0E1FF0AC0EAFF09C0E9FF08C0FBFFE6
:1009400007C0FAFF4192110025C020F026C021F017
:1009500027C0D9FF28C0DAFFDF50296E2950226E48
:10096000236A020E246E8FEC05F0030E2524206E00
:10097000000E2620216E20EE01F02750D9262850A7
:10098000DA22DF50296E2950226E236A020E246E6D
:100990008FEC05F0060E2524206E000E2620216E19
:1009A00020EE02F02750D9262850DA22DF50296E97
:1009B0002950226E236A020E246E8FEC05F020EE81
:1009C00003F02750D9262850DA22DF50D8A404D0CB
:1009D000000E2C6E0B0E03D0000E2C6E0A0E2B6E2A
:1009E00020EE05F02550D9262650DA222BC0DFFF55
:1009F00010EE02F02550E1262650E222DFCFE7FF7D
:100A00003B50D8B4120020EE03F02750D9262850CE
:100A1000DA22DF50D8B41200000E2D6E010E2E6EB9
:100A2000040E2E6401D012003B502E18D8A41CD006
:100A3000000E2F6E010E2F6401D016D02D50010D27
:100A400025C029F026C02AF0F3502926F4502A2286
:100A50002F50010DF3502924D96EF4502A20DA6E5C
:100A60000C0EDF262F2AE6D7030E2D26D8902E3621
:100A7000D7D7010E236E080E246E000E256E010ED0
:100A8000226E070E256401D012001AC0D9FF1BC0C8
:100A9000DAFF0B0EDF6420D0F40E1C6EFF0E1D6E0D
:100AA0001AC0D9FF1BC0DAFFDF501E6E1F6A1C5030
:100AB0001E261D501F2223C020F024C021F01E50EE
:100AC00020261F50212220C0F6FF21C0F7FF08007A
:100AD000F5507F0B8C6E17D01AC0D9FF1BC0DAFF00
:100AE000DF501C6E1C50010D23C01DF024C01EF0F1
:100AF000F3501D26F4501E221DC0F6FF1EC0F7FF46
:100B00000800F5CF8CFF1A4A1B2A2250FF0A8A6E72
:100B1000010EB8EC06F0D8902236252AB2D70BD0B9
:100B200024062450010DF3502024D96EF4502120C6
:100B3000DA6E000EDF6E2450D8A4F2D7235004E101
:100B40000A0E225CD8A021D022C019F023C01AF0CE
:100B5000000E1C6E0A0E1B6E3BEC06F0195020C0F6
:100B6000D9FF21C0DAFFDF6E204A212A22C019F006
:100B700023C01AF0000E1C6E0A0E1B6E12EC06F05B
:100B800019C022F01AC023F0D9D722C019F023C00F
:100B90001AF0000E1C6E0A0E1B6E3BEC06F019508C
:100BA00020C0D9FF21C0DAFFDF6E12002FD001C0B4
:100BB000D9FF02C0DAFFDF2A3B0EDF6431D001C06B
:100BC000D9FF02C0DAFF000EDF6E1ED020EE01F06A
:100BD0000150D9260250DA22DF2A3B0EDF6420D0F2
:100BE00020EE01F00CD020EE02F00150D926025088
:100BF000DA22DF2A170EDF6413D020EE02F0015054
:100C0000D9260250DA22DFD7010E12000350010A62
:100C1000D8B4CDD7030AD8B4D9D7060AD8B4E3D705
:100C2000000E1200000E1E6E000E1D6E1B501C10DA
:100C3000D8B41CD0010E1F6E04D0D8901B361C36C1
:100C40001F2A1CAEFAD7D8901D361E361B50195CD1
:100C50001C501A58D8A005D01B50195E1C501A5AA7
:100C60001D80D8901C321B321F2EEDD71DC019F0ED
:100C70001EC01AF012001B501C10D8B418D0010E60
:100C80001D6E04D0D8901B361C361D2A1CAEFAD718
:100C90001B50195C1C501A58D8A004D01B50195E68
:100CA0001C501A5AD8901C321B321D2EF1D719C075
:100CB00019F01AC01AF0120005C001F006C002F0C7
:100CC000010E036ED6EC05F00009D8B4120005C081
:100CD00001F006C002F0020E036ED6EC05F000092A
:100CE000D8B4120005C001F006C002F0040E036E75
:100CF000D6EC05F01200F29E0F0EC16E070EB46E18
:100D00009268000E956E000E936E8A688968880E50
:100D1000D56EF294F28AF1840B0ECD6E9E909D807A
:100D20009F80D08EF29CF28E4080000E3B6E1200AF
:100D30007BEC06F0300E256E000E266E3C0E276E04
:100D4000000E286EA4EC04F0300E1A6E000E1B6E1E
:100D500039EC05F0EFD700EE38F0080EEE6AE80641
:100D6000FDE141904192000EF86E000198EF06F00F
:100D7000196E05D000F040A0FDD74090190619501B
:060D8000D8B41200F8D700
:020000040020DA
:08000000FFFFFFFFFFFFFFFF00
:020000040030CA
:0E000000000C191EFF8181FF0FC00FE00F40A2
:00000001FF
