:04000000E9EF04F030
:1008000000280C0106000F0EC16E070EB46E20EE1C
:1008100001F010EE31F00C0EDBCFE3FFE806FCE256
:100820006FEC04F0010E2B6E030E00EC05F0000ED1
:10083000406E0B0E406401D00FD04050010D310EC0
:10084000F324D96E000EF420DA6EDF50296E010E0B
:1008500041EC05F0402AEDD7160E2B6E000E2C6EE3
:10086000000EC7EC04F0020E2B6E010E00EC05F03A
:10087000000E406E0F0E406401D007D0000E296EAE
:10088000010E41EC05F0402AF5D7000E406E020E35
:10089000406401D0FAD7000E3F6E000E3E6E3FBEA0
:1008A00006D0F40E3E5C010E3F58D8B00BD0070EB8
:1008B000306E7D0EE82EFED7302EFCD700F03E4A7B
:1008C0003F2AEDD74050080D0E0EF3242B6E000E7C
:1008D000F4202C6E000EC7EC04F0402AD8D7F00E9E
:1008E000956E949294908B928B90000E8C6E620E0B
:1008F0002B6E660EE82EFED72B2EFCD7000E2C6E2C
:10090000020E2C6401D00FD0030E266E000E17ECE1
:1009100005F0210E2B6E760EE82EFED72B2EFCD77F
:1009200000D02C2AEDD7020E266E000E17EC05F033
:10093000210E2B6E760EE82EFED72B2EFCD700D084
:10094000000E2C6E030E2C6401D018D02C50010D1B
:10095000010EF324F66E080EF420F76E0800F5CFB2
:1009600029F0000E41EC05F0210E2B6E760EE82EDC
:10097000FED72B2EFCD700D02C2AE4D7070E2B6EE7
:100980007D0EE82EFED72B2EFCD700F012002D6E28
:10099000D8902D36D8902D36D8902D36380E2D166D
:1009A0002D504009296E000E41EC05F0000E2E6E10
:1009B000070E2E6401D012002BC0D9FF2CC0DAFF25
:1009C000DF50296E010E41EC05F02B4A2C2A2E2A0D
:1009D000EFD75C0EF66E0A0EF76E000EF86E00EEA4
:1009E00001F010EE25F00900F5CFEEFFE550E150E3
:1009F000FAE1000EF86E080EF76E000103EF04F046
:100A00002C6E2B04D8A404D0000E2E6E000E03D042
:100A1000000E2E6E400E2D6E2DC02FF02C042F26B2
:100A20002F508009296E000E41EC05F01200276E50
:100A300027B002D08B9201D08B8200F08B8000F027
:100A400026500F0B8C6E00F08B90000E286E130E4C
:100A5000286401D0120000F0282AF9D74976616E87
:100A600020204D6F72656E6F000E110E150E040A78
:100A7000110E110E041F040A0A0E110E040E1504A5
:010A80000E67
:100A82002A6E29380F0B266E2A5017EC05F029C062
:0A0A920026F02A5017EC05F01200C0
:020000040020DA
:08000000FFFFFFFFFFFFFFFF00
:020000040030CA
:0E000000000C191EFF8181FF0FC00FE00F40A2
:00000001FF
