:0400000002EF05F016
:100800000028000C00010006000043EC05F020EE7B
:1008100001F010EE33F00C0EDBCFE3FFE806FCE254
:100820006FEC04F0010E2D6E030E19EC05F0000EB6
:10083000426E0B0E426401D00FD04250010D330EB8
:10084000F324D96E000EF420DA6EDF502B6E010E09
:1008500054EC05F0422AEDD7160E2D6E000E2E6ECA
:10086000000EC2EC04F0020E2D6E000E19EC05F025
:10087000000E426E0F0E426401D007D0000E2B6EA8
:10088000010E54EC05F0422AF5D7000E426E020E1E
:10089000426401D0FAD7000E416E000E406E41BE98
:1008A00006D0F40E405C010E4158D8B00BD0070EB4
:1008B000326E7D0EE82EFED7322EFCD700F0404A75
:1008C000412AEDD74250080D0E0EF3242D6E000E76
:1008D000F4202E6E000EC2EC04F0422AD8D7000E8F
:1008E0006CEC05F0620E2D6E660EE82EFED72D2EF6
:1008F000FCD7000E2E6E020E2E6401D00FD0030E18
:10090000286E000EE4EC04F0210E2D6E760EE82E1B
:10091000FED72D2EFCD700D02E2AEDD7020E286E42
:10092000000EE4EC04F0210E2D6E760EE82EFED7BC
:100930002D2EFCD700D0000E2E6E030E2E6401D09B
:1009400018D02E50020D010EF324F66E080EF4207E
:10095000F76E0800F5CF2BF0000E54EC05F0210ED9
:100960002D6E760EE82EFED72D2EFCD700D02E2A27
:10097000E4D7070E2D6E7D0EE82EFED72D2EFCD768
:1009800000F012002F6ED8902F36D8902F36D890C6
:100990002F36380E2F162F5040092B6E000E54ECB8
:1009A00005F0000E306E070E306401D012002DC02D
:1009B000D9FF2EC0DAFFDF502B6E010E54EC05F08C
:1009C0002D4A2E2A302AEFD72A6E8B902A50D8B47F
:1009D00003D0296A292A01D0296A29468B5029186F
:1009E000FD0B29188B6E00F08B8000F028500F0B48
:1009F0008C6E00F08B90000E276E140E266E61EC4C
:100A000005F01200600EF66E0A0EF76E000EF86E1C
:100A100000EE01F010EE25F00900F5CFEEFFE550F5
:100A2000E150FAE1000EF86E080EF76E000105EFD6
:100A300004F02E6E2D04D8A404D0000E306E000EEB
:100A400003D0000E306E400E2F6E2FC031F02E04FA
:100A50003126315080092B6E000E54EC05F0120047
:100A60004976616E20204D6F72656E6F000E110E1B
:100A7000150E040A110E110E041F040A0A0E110E9F
:050A8000040E15040E38
:100A86000F0EB46EB4CFC1FFF00E926E92CF95FFEB
:100A9600FC0E946E000E896E89CF8CFF8CCF8BFF77
:100AA60012002C6E2B380F0B286E2C50E4EC04F041
:100AB6002BC028F02C50E4EC04F0120001D000F01A
:100AC6002606D8A027062628FAE12728D8B4120039
:100AD600F6D7266E26380F0B0F0B8C6E26500F0B93
:040AE600896E120003
:020000040020DA
:08000000FFFFFFFFFFFFFFFF00
:020000040030CA
:0E000000000C191EFF8181FF0FC00FE00F40A2
:00000001FF
