:0400000007EF00F016
:0A00080028820BED04F05DEF05F017
:1008000000C0F9A4B0999282F880988803C6A186A6
:100810008E7FBFFEFD000600FACF01F0FBCF02F095
:10082000E9CF03F0EACF04F0E1CF05F0E2CF06F024
:10083000D9CF07F0DACF08F0F3CF09F0F4CF0AF000
:10084000F6CF0BF0F7CF0CF0F8CF0DF0F5CF0EF0A0
:1008500028C00FF029C010F02AC011F02BC012F0F0
:10086000F2A418D0580ED66E9E0ED76EF294278042
:10087000222AC70E22640ED0000E226E204A212AA0
:10088000100E205C270E2158D8A004D0000E216E37
:10089000000E206E12C02BF011C02AF010C029F0FB
:1008A0000FC028F00EC0F5FF0DC0F8FF0CC0F7FF19
:1008B0000BC0F6FF0AC0F4FF09C0F3FF08C0DAFF5F
:1008C00007C0D9FF06C0E2FF05C0E1FF04C0EAFF90
:1008D00003C0E9FF02C0FBFF01C0FAFF289211002C
:1008E000000E1F6E1E50D8B40CD01E061E50010DF7
:1008F000F3501A24D96EF4501B20DA6E000EDF6E0E
:10090000F1D71D5004E10A0E1C5CD8A024D01F5062
:10091000010DF3501A24D96EF4501B20DA6E1CC05E
:1009200013F01DC014F0000E166E0A0E156E14ECB6
:1009300005F01350DF6E1F2A1CC013F01DC014F009
:10094000000E166E0A0E156EEBEC04F013C01CF0D0
:1009500014C01DF0D6D71F50010DF3501A24D96EC4
:10096000F4501B20DA6E1CC013F01DC014F0000EF2
:10097000166E0A0E156E14EC05F01350DF6E1200A1
:10098000000E176E030E176401D012001750010DF0
:10099000110EF324F66E080EF420F76E0800F5CF62
:1009A0008BFF1750010DF3501424D96EF45015200D
:1009B000DA6EDF50166E1650010D010EF324F66E3E
:1009C000080EF420F76E0800F5CF8CFF010E6CECDA
:1009D00005F0172AD7D7000E186E000E176E1550A7
:1009E0001610D8B41CD0010E196E04D0D89015364C
:1009F0001636192A16AEFAD7D8901736183615506B
:100A0000135C16501458D8A005D01550135E16501C
:100A1000145A1780D89016321532192EEDD717C0F8
:100A200013F018C014F0120015501610D8B418D0D6
:100A3000010E176E04D0D89015361636172A16AE4A
:100A4000FAD71550135C16501458D8A004D015507E
:100A5000135E1650145AD89016321532172EF1D74D
:100A600013C013F014C014F012004AEC05F0230E6A
:100A70001A6E000E1B6E20C01CF021C01DF0040E6B
:100A80001E6E70EC04F0230E146E000E156EC0EC9A
:100A900004F0EDD7F29E0F0EC16E070EB46E000E7D
:100AA000956E3C0E946E880ED56EF294F28AF184A7
:100AB000D08E2780F29CF28E120000EE20F0070EFE
:100AC000EE6AE806FDE128902892000EF86E080E06
:100AD000F76E000135EF05F0136E04D027A0FED7A6
:0C0AE000279013061350D8B41200F8D76A
:020000040020DA
:08000000FFFFFFFFFFFFFFFF00
:020000040030CA
:0E000000000C191EFF8181FF0FC00FE00F40A2
:00000001FF
