:04000000EBEF05F02D
:10080000007069736F2033007069736F203200705D
:0B08100069736F203100280C01060006
:10081C00000E216E700E8A6E81B605D0000E026E2F
:10082C00310E016E24D081B405D0000E046E320E50
:10083C00036E19D081B205D0000E066E330E056E14
:10084C000ED081B004D0000E086E410E03D0000E05
:10085C00086E000E076E07C005F008C006F005C054
:10086C0003F006C004F003C001F004C002F001C0A4
:10087C0021F02150D8B402D021501200B00E8A6E53
:10088C0081B605D0000E0A6E340E096E24D081B4E8
:10089C0005D0000E0C6E350E0B6E19D081B205D042
:1008AC00000E0E6E360E0D6E0ED081B004D0000E02
:1008BC00106E420E03D0000E106E000E0F6E0FC0A5
:1008CC000DF010C00EF00DC00BF00EC00CF00BC0F4
:1008DC0009F00CC00AF009C021F02150D8B402D0A4
:1008EC0021501200D00E8A6E81B605D0000E126E09
:1008FC00370E116E24D081B405D0000E146E380E54
:10090C00136E19D081B205D0000E166E390E156E0D
:10091C000ED081B004D0000E186E430E03D0000E22
:10092C00186E000E176E17C015F018C016F015C013
:10093C0013F016C014F013C011F014C012F011C053
:10094C0021F02150D8B402D021501200E00E8A6E52
:10095C0081B605D0000E1A6E2A0E196E24D081B401
:10096C0005D0000E1C6E300E1B6E19D081B205D056
:10097C00000E1E6E230E1D6E0ED081B004D0000E24
:10098C00206E440E03D0000E206E000E1F6E1FC092
:10099C001DF020C01EF01DC01BF01EC01CF01BC0A3
:1009AC0019F01CC01AF019C021F021501200E3EC10
:1009BC0005F067EC05F00EEC04F0276E2750D8B468
:1009CC00FAD7310E2718D8A423D0010E046E000ECE
:1009DC00D6EC05F0210E226E760EE82EFED7222ED6
:1009EC00FCD700D0000E246E050E246401D010D06C
:1009FC002450010D0F0EF324F66E080EF420F76E42
:100A0C000800F5CF04F0010ED6EC05F0242AECD743
:100A1C00320E2718D8A423D0010E046E000ED6EC8B
:100A2C0005F0210E226E760EE82EFED7222EFCD774
:100A3C0000D0000E256E050E256401D010D0255077
:100A4C00010D080EF324F66E080EF420F76E080064
:100A5C00F5CF04F0010ED6EC05F0252AECD7330EB9
:100A6C002718D8A422D0010E046E000ED6EC05F087
:100A7C000D0E226EFC0EE82EFED7222EFCD7000E99
:100A8C00266E050E266401D010D02650010D010EE5
:100A9C00F324F66E080EF420F76E0800F5CF04F080
:100AAC00010ED6EC05F0262AECD7070E236E580E55
:100ABC00226E5A0EE82EFED7222EFCD7232EFAD702
:100ACC007AD7F00E956E949294908B928B90000E38
:100ADC008C6E620E066E660EE82EFED7062EFCD7C6
:100AEC00000E076E020E076401D00FD0030E016ECC
:100AFC00000EBFEC05F0210E066E760EE82EFED72A
:100B0C00062EFCD700D0072AEDD7020E016E000E80
:100B1C00BFEC05F0210E066E760EE82EFED7062EE3
:100B2C00FCD700D0000E076E030E076401D018D05E
:100B3C000750010D160EF324F66E080EF420F76E16
:100B4C000800F5CF04F0000ED6EC05F0210E066E71
:100B5C00760EE82EFED7062EFCD700D0072AE4D757
:100B6C00070E066E7D0EE82EFED7062EFCD700F083
:100B7C001200026E02B002D08B9201D08B8200F078
:100B8C008B8000F001500F0B8C6E00F08B90000EE0
:100B9C00036E130E036401D0120000F0032AF9D780
:100BAC00056E04380F0B016E0550BFEC05F004C048
:100BBC0001F00550BFEC05F012000F0EC16E070ED0
:100BCC00B46E0F0E936EF19E1200000EF86E080EAE
:080BDC00F76E0001DDEF04F0EB
:020000040020DA
:08000000FFFFFFFFFFFFFFFF00
:020000040030CA
:0E000000000C191EFF8181FF0FC00FE00F40A2
:00000001FF
