:0400000073EF00F0AA
:060008002C8275ED00F0F2
:100018002C80D8CF17F0E8CF18F0E0CF19F0FACF3E
:100028001AF0FBCF1BF0E9CF1CF0EACF1DF0E1CFAF
:100038001EF0E2CF1FF0D9CF20F0DACF21F0F3CFB6
:1000480022F0F4CF23F0F6CF24F0F7CF25F0F8CF45
:1000580026F0F5CF27F02CC028F02DC029F02EC0AF
:100068002AF02FC02BF0F0A20ED08A8C7F0E166ECD
:10007800D40E156E320EE82EFED7152EFCD7162E8E
:10008800FAD78A9CF0922BC02FF02AC02EF029C0F4
:100098002DF028C02CF027C0F5FF26C0F8FF25C09A
:1000A800F7FF24C0F6FF23C0F4FF22C0F3FF21C0EE
:1000B800DAFF20C0D9FF1FC0E2FF1EC0E1FF1DC04C
:1000C800EAFF1CC0E9FF1BC0FBFF1AC0FAFF19C0FA
:1000D800E0FF18C0E8FF17C0D8FF2C901000E3EF2E
:1000E80000F00600FACF03F0FBCF04F0E9CF05F0EB
:1000F800EACF06F0E1CF07F0E2CF08F0D9CF09F058
:10010800DACF0AF0F3CF0BF0F4CF0CF0F6CF0DF006
:10011800F7CF0EF0F8CF0FF0F5CF10F02CC011F09C
:100128002DC012F02EC013F02FC014F0F0A00ED086
:100138008A8A7F0E026ED40E016E320EE82EFED72A
:10014800012EFCD7022EFAD78A9AF09014C02FF00D
:1001580013C02EF012C02DF011C02CF010C0F5FF06
:100168000FC0F8FF0EC0F7FF0DC0F6FF0CC0F4FF7C
:100178000BC0F3FF0AC0DAFF09C0D9FF08C0E2FFCD
:1001880007C0E1FF06C0EAFF05C0E9FF04C0FBFFA6
:1001980003C0FAFF2C921100F29E93829384939AE3
:1001A800939C8A9A8A9CF090F086F08CF18AF0925F
:1001B800F088F09EF188D08EF28CF28EFFD72C90CA
:0801C8002C920001D0EF00F0C1
:020000040020DA
:08000000FFFFFFFFFFFFFFFF00
:020000040030CA
:0E000000000C191EFF8181FF0FC00FE00F40A2
:00000001FF
