:020000040000FA
:1010000064EC08F0000EF86E120EF76E000E8B6E98
:10101000206E306E406E506E0A0E106E26EC08F098
:10102000102E0EEF08F081B018EF08F01BEF08F05B
:1010300081B220EF08F0010E8D6E206E0CEF08F0EB
:10104000000E8D6E020E206E0CEF08F0800E8B6E7F
:101050002050F66E0800F55080098C6E51EC08F0B7
:10106000400E8B6E3050F66E0800F55080098C6E85
:1010700051EC08F0010E8B6E8B8A4050F66E080022
:10108000F55080098C6E51EC08F0020E8B6E8B8847
:101090005050F66E0800F55080098C6E51EC08F047
:1010A0001200050E806F59EC08F0802F53EF08F006
:1010B0001200070E606FEC0E706F702F5DEF08F07E
:1010C000602F5BEF08F012000F0EC16E070EB46EBA
:1010D000FF0E926EFF0E936E3C0E946E000E956E98
:0610E000FC0E966E1200EA
:0210E600000008
:1012000040792430191202F8001808034621060E0E
:020000040030CA
:0100000000FF
:010001000CF2
:0100020019E4
:010003001EDE
:010005008377
:010006008574
:010008000FE8
:01000900C036
:01000A000FE6
:01000B00E014
:01000C000FE4
:01000D0040B2
:00000001FF
