:04000000A0EF07F076
:10080000001F1C1F1E1F1E1F1F1E1F1E1F01000A70
:10081000006400E8031027280C0106454E450046F9
:100820004542004D415200414252004D4159004A5B
:10083000554E004A554C0041474F00534550004F1C
:100840004354004E4F5600444943002532643A2534
:1008500032643A253264202532643A25733A25649D
:0908600000286E756C6C29000083
:10086A00110E226E000E236E6AD1250E2D18D8B4F1
:10087A0009D00DC0D9FF0EC0DAFF2DC0DFFF0D4A27
:10088A000E2A5DD1000E2C6E000E2B6E000E246E09
:10089A000FC0F6FF10C0F7FF0800F55076EC07F01E
:1008AA00D8A096D0000E2C6E000E2B6E2BC001F035
:1008BA002CC002F0000E046E0A0E036E53EC07F011
:1008CA0001C02BF002C02CF0D00E1D6EFF0E1E6E62
:1008DA000FC0F6FF10C0F7FF0800F5501F6E206A20
:1008EA001D501F261E5020221F502B2620502C221E
:1008FA000F4A102A0FC0F6FF10C0F7FF0800F55084
:10090A0076EC07F0D8A064D0D1D722C0D9FF23C093
:10091A00DAFFDECF25F0DDCF26F0020E2226000E0A
:10092A00232225502610D8A404D0610E256E080E65
:10093A00266E000E2A6E000E296E02D0294A2A2A35
:10094A00295025241D6E2A5026201E6E1DC0F6FF32
:10095A001EC0F7FF0800F5500009D8A4EFD72B50A6
:10096A00295C2C502A58D8B005D029502B5E2A5021
:10097A002C5A0DD0000E2C6E000E2B6E08D00DC016
:10098A00D9FF0EC0DAFF200EDF6E0D4A0E2A2B06A3
:10099A00D8A02C062B28F3E12C28D8B410D0EFD7F6
:1009AA0025C0F6FF26C0F7FF0DC0D9FF0EC0DAFF3B
:1009BA000800F5CFDFFF254A262A0D4A0E2A290606
:1009CA00D8A02A062928ECE12A28D8B4B8D0E8D732
:1009DA000FC0F6FF10C0F7FF0F4A102A0800F5CF24
:1009EA002DF02D50000AD8B4B6D0640AD8B407D076
:1009FA000D0AD8B404D01A0AD8B487D7A0D022C016
:100A0A00D9FF23C0DAFFDECF27F0DDCF28F0020EB0
:100A1A002226000E232228AE06D0030E2412276CAB
:100A2A00281ED8B0282A010E2D6E050E2D18D8B40E
:100A3A0012D02D50020D0D0EF324F66E080EF4207E
:100A4A00F76E0900F550275C0900F5502858D8A020
:100A5A0002D02D2AEAD72B502C10D8B409D024C0A2
:100A6A001DF0030E1D16D8B403D02B06D8A02C06F1
:100A7A00800E2DBE7F0E1D6E2B502D5C2C50800AD1
:100A8A001D58D8B007D02D502B5E000E2DBEFF0E7C
:100A9A002C5A04D0000E2C6E000E2B6E2B502C10EC
:100AAA00D8B40FD00DC0D9FF0EC0DAFF200EDF6E0A
:100ABA000D4A0E2A2B06D8A02C062B502C10D8A48F
:100ACA00F1D724C01DF0030E1D16D8B408D00DC0EE
:100ADA00D9FF0EC0DAFF2D0EDF6E0D4A0E2A2DC089
:100AEA0021F029D02150020D0D0EF324F66E080EC6
:100AFA00F420F76E0900F5CF03F00A00F5CF04F0F1
:100B0A0027C001F028C002F0B9EC06F001C008F0D5
:100B1A0002C009F0000E0B6E0A0E0A6E04EC07F012
:100B2A000850300F2D6E0DC0D9FF0EC0DAFF2DC050
:100B3A00DFFF0D4A0E2A21062128D8A4D3D70FC0D9
:100B4A00F6FF10C0F7FF0F4A102A0800F5CF2DF064
:100B5A002D50D8A48AD60DC0D9FF0EC0DAFF000ED8
:100B6A00DF6E1200F00E956E949294908B928B9099
:100B7A00000E8C6E620E066E660EE82EFED7062EEC
:100B8A00FCD7000E076E020E076401D00FD0030EC9
:100B9A00016E000E3CEC07F0210E066E760EE82E72
:100BAA00FED7062EFCD700D0072AEDD7020E016E1B
:100BBA00000E3CEC07F0210E066E760EE82EFED7EC
:100BCA00062EFCD700D0000E076E030E076401D074
:100BDA0018D00750010D170EF324F66E080EF420F4
:100BEA00F76E0800F5CF04F0000E93EC07F0210E23
:100BFA00066E760EE82EFED7062EFCD700D0072A00
:100C0A00E4D7070E066E7D0EE82EFED7062EFCD719
:100C1A0000F012003C0E0D6E000E0E6E4B0E0F6EA3
:100C2A00080E106E37C011F0126A36C013F0146A3B
:100C3A0035C015F0166A38C017F0186AFC0E2E6E09
:100C4A00FF0E2F6E3950306E316AD89030363136F9
:100C5A00D890303631362E5030262F5031221B0E86
:100C6A003024196E080E31201A6E3AC01BF03BC0B0
:100C7A001CF035EC04F0010E066E050E25EC07F0AB
:100C8A00000E326E130E326401D01200080E3218B2
:100C9A00D8A405D0020E066E020E25EC07F03250DB
:100CAA00010D3C0EF324D96E000EF420DA6EDF50EB
:100CBA00046E010E93EC07F065EC06F0322AE2D7D7
:100CCA00352A3504056E3A0E05641200000E356E9B
:100CDA00362A3B0E36641200000E366E372A170E7D
:100CEA0037641200000E376E020E3918D8A40ED0DF
:100CFA003AC001F03BC002F085EC07F0056E1C0E0D
:100D0A000524096E0A6A000E0A2215D0FF0E056E26
:100D1A00FF0E066E3950076E086A05500726065000
:100D2A000822010E0724F66E080E0820F76E080046
:100D3A00F550096E0A6A382A3850056E066A055057
:100D4A00095C0A50800A076E0650800A0758D8B014
:100D5A001200010E386E392A0C0E39641200010E87
:100D6A00396E3A4A3B2A1200000E066E000E056ED4
:100D7A0003500410D8B41CD0010E076E04D0D890CA
:100D8A0003360436072A04AEFAD7D8900536063653
:100D9A000350015C04500258D8A005D00350015EEC
:100DAA000450025A0580D89004320332072EEDD738
:100DBA0005C001F006C002F01200B7EC05F03B0EC8
:100DCA00016E170E026E1C0E036E020E046E070EE3
:100DDA00066EE20E056E3B0E66EC07F00FEC06F0AF
:100DEA0065EC06F01A0E346E5E0E336E6E0EE82E49
:100DFA00FED7332EFCD7342EFAD700D0EFD70A50BD
:100E0A000B10D8B418D0010E0C6E04D0D8900A3644
:100E1A000B360C2A0BAEFAD70A50085C0B5009584D
:100E2A00D8A004D00A50085E0B50095AD8900B3249
:100E3A000A320C2EF1D708C008F009C009F01200D6
:100E4A00076E0604D8A404D0000E096E000E03D063
:100E5A00000E096E400E086E08C00AF007040A2642
:100E6A000A508009046E000E93EC07F01200026E1D
:100E7A0002B002D08B9201D08B8200F08B8000F0FE
:100E8A0001500F0B8C6E00F08B90000E036E130E48
:100E9A00036401D0120000F0032AF9D701500302BB
:100EAA00F3CF05F0F4CF06F001500402F350062602
:100EBA0002500302F350062605C001F006C002F0F4
:100ECA001200076E07C035F001C036F002C037F0D5
:100EDA0003C038F004C039F005C03AF006C03BF050
:100EEA001200036E000E026E3A0E036005D02F0E3A
:100EFA00036402D0010E026E02C001F0013012003A
:100F0A00030E0114036E000E0214046E0350041043
:100F1A00D8B402D0010E1200000E1200056E043879
:100F2A000F0B016E05503CEC07F004C001F00550B0
:100F3A003CEC07F0120000EE35F01D0EEE6AE806F2
:0C0F4A00FDE1000EF86E0001E2EF06F081
:020000040020DA
:08000000FFFFFFFFFFFFFFFF00
:020000040030CA
:0E000000000C191EFF8181FF0FC00FE00F40A2
:00000001FF
