:0400000010EF05F008
:1008000000C0F9A4B0999282F880988803C6A186A6
:100810008E7FBFFEFD00000E0D6E0C50D8B40CD0C4
:100820000C060C50010DF3500824D96EF450092029
:10083000DA6E000EDF6EF1D70B5004E10A0E0A5C8F
:10084000D8A024D00D50010DF3500824D96EF450D7
:100850000920DA6E0AC001F00BC002F0000E046E2F
:100860000A0E036EE2EC04F00150DF6E0D2A0AC09E
:1008700001F00BC002F0000E046E0A0E036EB9EC1C
:1008800004F001C00AF002C00BF0D6D70D50010DE4
:10089000F3500824D96EF4500920DA6E0AC001F032
:1008A0000BC002F0000E046E0A0E036EE2EC04F0C0
:1008B0000150DF6E1200000E046E030E046401D0BE
:1008C00012000450010D110EF324F66E080EF420F0
:1008D000F76E0800F5CF8BFF0450010DF350012493
:1008E000D96EF4500220DA6EDF50036E0350010D12
:1008F000010EF324F66E080EF420F76E0800F5CF13
:100900008CFF210E036E760EE82EFED7032EFCD749
:1009100000D0042AD2D703EC05F0C282C2A2FED7CF
:10092000C4500F6E0E6AC350106E116A0E50101034
:10093000166E0F501110176E120E086E000E096E13
:10094000D89017300E6E16300A6E0EC00BF0040EE3
:100950000C6E0BEC04F0640E186E01D018061850E3
:10096000D8A4FCD7120E016E000E026E5BEC04F0F0
:10097000D4D7000E066E000E056E03500410D8B4D6
:100980001CD0010E076E04D0D89003360436072A17
:1009900004AEFAD7D890053606360350015C0450F1
:1009A0000258D8A005D00350015E0450025A0580B9
:1009B000D89004320332072EEDD705C001F006C0EF
:1009C00002F0120003500410D8B418D0010E056EC6
:1009D00004D0D89003360436052A04AEFAD7035063
:1009E000015C04500258D8A004D00350015E0450AA
:1009F000025AD89004320332052EF1D701C001F01B
:100A000002C002F01200000E956E3C0E946E010EB4
:100A1000C26E0E0EC16EBF0EC06E7F0E8B6E1200C8
:0E0A2000000EF86E080EF76E00018BEF04F06A
:020000040020DA
:08000000FFFFFFFFFFFFFFFF00
:020000040030CA
:0E000000000C191EFF8181FF0FC00FE00F40A2
:00000001FF
