:04000000A8EF05F070
:1008000000000000000000001F0000000000001FAA
:100810001F00000000001F1F1F000000001F1F1FFF
:100820001F0000001F1F1F1F1F00001F1F1F1F1F73
:100830001F001F1F1F1F1F1F1F1F1F1F1F1F1F1FE7
:100840001F280C0106000000000000001F0000002F
:100850000000001F1F00000000001F1F1F000000FD
:10086000001F1F1F1F0000001F1F1F1F1F00001F52
:100870001F1F1F1F1F001F1F1F1F1F1F1F1F1F1FA7
:100880001F1F1F1F1F00176E100E17601200010E92
:10089000186E020E186401D0120018C006F0010E86
:1008A0006DEC05F0000E196E0F0E196401D052D0D8
:1008B0001804D8B429D0070E196411D01950175C48
:1008C000D8B004D0000E106E200E03D0000E106EB3
:1008D000070E0F6E0FC00DF010C00EF010D01950A3
:1008E000175CD8B005D0000E126E200E116E03D02A
:1008F00019C011F0126A11C00DF012C00EF00DC037
:100900000BF00EC00CF01FD0070E196414D0195054
:10091000175CD8B005D0000E166E200E156E06D0EE
:10092000F80E1924156E166AFF0E162215C013F064
:1009300016C014F004D0000E146E200E136E13C0F7
:100940000BF014C00CF00BC004F0010E9BEC05F092
:10095000192AAAD7182A9DD7F00E956E94929490D2
:100960008B928B90000E8C6E620E066E660EE82ED9
:10097000FED7062EFCD7000E076E020E076401D0CC
:100980000FD0030E016E000E84EC05F0210E066EF2
:10099000760EE82EFED7062EFCD700D0072AEDD71C
:1009A000020E016E000E84EC05F0210E066E760E2E
:1009B000E82EFED7062EFCD700D0000E076E030EE1
:1009C000076401D018D00750010D410EF324F66ED4
:1009D000080EF420F76E0800F5CF04F0000E9BEC33
:1009E00005F0210E066E760EE82EFED7062EFCD7F9
:1009F00000D0072AE4D7070E066E7D0EE82EFED73C
:100A0000062EFCD700F01200ACEC04F056EC05F01A
:100A1000000E1D6E0F0E1D6401D010D01D5043EC52
:100A200004F0030E1C6E8A0E1B6E560EE82EFED7C7
:100A30001B2EFCD71C2EFAD71D2AECD70E0E1E6ECD
:100A40001E50D8B4E5D71E5043EC04F0030E1C6EC4
:100A50008A0E1B6E560EE82EFED71B2EFCD71C2EC0
:100A6000FAD71E06EDD7086ED8900836D89008360B
:100A7000D8900836380E081608504009046E000E4B
:100A80009BEC05F0000E096E070E096401D0120000
:100A900006C0F6FF07C0F7FF0800F5CF04F0010E0F
:100AA0009BEC05F0064A072A092AEED7000E1A6EBB
:100AB000070E1A6401D00DD01A50080D450EF3240C
:100AC000066E080EF420076E1A5033EC05F01A2A51
:100AD000EFD7000E43EC04F01200076E0604D8A412
:100AE00004D0000E096E000E03D0000E096E400EF9
:100AF000086E08C00AF007040A260A508009046E2E
:100B0000000E9BEC05F01200026E02B002D08B9238
:100B100001D08B8200F08B8000F001500F0B8C6EA7
:100B200000F08B90000E036E130E036401D01200D0
:100B300000F0032AF9D7056E04380F0B016E05503B
:100B400084EC05F004C001F0055084EC05F01200BF
:0A0B5000000EF86E000104EF05F03E
:020000040020DA
:08000000FFFFFFFFFFFFFFFF00
:020000040030CA
:0E000000000C191EFF8181FF0FC00FE00F40A2
:00000001FF
