:020000040000FA
:0400000000EF08F015
:020004000000FA
:1010000022EC08F0C282C2B203EF08F0C350106EA7
:101010001042109E10508A6E280E105C406E405098
:10102000105C506E0C0E5026300E4026340E506E62
:101030004050AD6E5050AD6E200EAD6E37EC08F0E6
:1010400002EF08F0000E936E010EC26E0E0EC16E1E
:10105000BF0EC06E800E946EFF0E926E200EAC6EB0
:10106000900EAB6E000EB86E1F0EAF6E1200070E24
:10107000206EEC0E306E302E3BEF08F0202E39EF54
:0410800008F0120062
:020000040030CA
:0100000000FF
:010001000CF2
:0100020019E4
:010003001EDE
:010005008179
:010006008178
:010008000FE8
:01000900C036
:01000A000FE6
:01000B00E014
:01000C000FE4
:01000D0040B2
:00000001FF
