:020000040000FA
:0400000000EF08F015
:020004000000FA
:0400080080EF00F095
:100100009EB099EC00F0F2B487EC00F01100F2948C
:10011000780ED66EEC0ED76E002B006712000A0E1A
:10012000706396EF00F00B0E706F12000A0E706F86
:0C0130001200CF8E9E9063EC08F01200CD
:10100000000EF86E120EF76E0A0E706F000E106E64
:10101000000E206E000E306E000E406E000E506E00
:10102000000E606F96EC08F087EC08F01AEC08F000
:1010300016EF08F0FE0E8A6E105053EC08F058ECD4
:1010400008F0FD0E8A6E205053EC08F058EC08F0C2
:10105000FB0E8A6E705153EC08F058EC08F0F70E56
:101060008A6E305053EC08F058EC08F0EF0E8A6EA0
:10107000405053EC08F058EC08F0DF0E8A6E7051C7
:1010800053EC08F058EC08F0BF0E8A6E505053EC49
:1010900008F058EC08F07F0E8A6E605153EC08F0AF
:1010A00058EC08F01200F66E0800F5508C6E120035
:1010B000070E806FEC0E906F902F5CEF08F0802F82
:1010C0005AEF08F01200102A090E10641200106A7C
:1010D000202A050E20641200206A302A090E30648E
:1010E0001200306A402A050E40641200406A502AFD
:1010F000010E606581EF08F0030E50641200506A23
:10110000606B090E50641200506A602B1200F29E50
:10111000880ED56EF294F28AF1840B0ECD6E9E90FD
:101120009D809F80D08EF29CF28E12000F0EC16EB9
:10113000070EB46EFF0E926E000E936EFF0E946E4D
:06114000000E956E120086
:0C120000C0F9A4B0999282F88098BFFF5A
:020000040030CA
:0100000000FF
:010001000CF2
:0100020019E4
:010003001EDE
:010005008179
:010006008178
:010008000FE8
:01000900C036
:01000A000FE6
:01000B00E014
:01000C000FE4
:01000D0040B2
:00000001FF
