:020000040000FA
:020000000000FE
:10100000B0EC08F049EC08F0BEEC08F0606B406A08
:101010000E0E816E81A823EF08F0402A81AA23EFEB
:1010200008F0402A81AC23EF08F0402A81AE23EF7C
:1010300008F0402A100E405CD8B407EF08F0D880C2
:1010400081360AEF08F081A823EF08F081AA26EF85
:1010500008F081AC29EF08F081AE2CEF08F0405089
:10106000000E406407EF08F0602B010E60613BEF5B
:1010700008F0BEEC08F0020E606541EF08F0DAEC13
:1010800008F0030E606507EF08F00EEC09F007EFBB
:1010900008F0000E8C6E8B6E0F0EA9EC08F08B9290
:1010A000030E86EC08F0050EA9EC08F0030E86ECA2
:1010B00008F0050EA9EC08F0030E86EC08F0050E0A
:1010C000A9EC08F08B92020E86EC08F0050EA9EC54
:1010D00008F08B92280E90EC08F0050EA9EC08F0B1
:1010E0008B920C0E90EC08F0050EA9EC08F08B9298
:1010F000010E90EC08F0050EA9EC08F08B92060E9C
:1011000090EC08F0050EA9EC08F012008B800000AE
:101110000F0B8C6E00008B90280E98EC08F01200DC
:10112000506E503886EC08F0505086EC08F01200F3
:10113000106E0000102E99EF08F01200070E206EBE
:10114000EC0E306E302EA2EF08F0202EA0EF08F04B
:101150001200106E9EEC08F0102EAAEF08F012009C
:101160000F0EC16E070EB46EFF0E926EF00E936EF0
:10117000F00E956EF00E946EF19E1200010E8B92A1
:1011800090EC08F0050EA9EC08F0560E8B8290EC5E
:1011900008F0610E8B8290EC08F0630E8B8290EC6D
:1011A00008F0690E8B8290EC08F06F0E8B8290EC49
:1011B00008F01200010E8B9290EC08F0050EA9ECDD
:1011C00008F04D0E8B8290EC08F0650E8B8290EC4F
:1011D00008F0640E8B8290EC08F0690E8B8290EC24
:1011E00008F06F0E8B8290EC08F0200E8B8290EC52
:1011F00008F06C0E8B8290EC08F06C0E8B8290ECF9
:1012000008F0650E8B8290EC08F06E0E8B8290ECED
:1012100008F06F0E8B8290EC08F01200010E8B929A
:1012200090EC08F0050EA9EC08F0430E8B8290ECD0
:1012300008F06F0E8B8290EC08F06D0E8B8290ECB4
:1012400008F0700E8B8290EC08F06C0E8B8290ECA4
:1012500008F0650E8B8290EC08F0740E8B8290EC97
:0C12600008F06F0E8B8290EC08F012007A
:020000040030CA
:0100000000FF
:010001000CF2
:0100020019E4
:010003001EDE
:010005008179
:010006008574
:010008000FE8
:01000900C036
:01000A000FE6
:01000B00E014
:01000C000FE4
:01000D0040B2
:00000001FF
