:0400000007EF00F016
:0A000800288209ED04F05AEF05F01C
:1008000000C0F9A4B0999282F880988803C6A186A6
:100810008E000600FACF01F0FBCF02F0E9CF03F023
:10082000EACF04F0E1CF05F0E2CF06F0D9CF07F030
:10083000DACF08F0F3CF09F0F4CF0AF0F6CF0BF0DF
:10084000F7CF0CF0F8CF0DF0F5CF0EF028C00FF079
:1008500029C010F02AC011F02BC012F09EA00ED0BB
:10086000CF8E9E90204A212A100E205C270E215800
:10087000D8A004D0000E216E000E206EF2A406D087
:10088000580ED66E9E0ED76EF294278012C02BF0B3
:1008900011C02AF010C029F00FC028F00EC0F5FFDB
:1008A0000DC0F8FF0CC0F7FF0BC0F6FF0AC0F4FF45
:1008B00009C0F3FF08C0DAFF07C0D9FF06C0E2FF96
:1008C00005C0E1FF04C0EAFF03C0E9FF02C0FBFF6F
:1008D00001C0FAFF28921100000E1F6E1E50D8B4FE
:1008E0000CD01E061E50010DF3501A24D96EF45080
:1008F0001B20DA6E000EDF6EF1D71D5004E10A0EE8
:100900001C5CD8A024D01F50010DF3501A24D96EBE
:10091000F4501B20DA6E1CC013F01DC014F0000E42
:10092000166E0A0E156E0CEC05F01350DF6E1F2AC2
:100930001CC013F01DC014F0000E166E0A0E156ECA
:10094000BCEC04F013C01CF014C01DF0D6D71F502F
:10095000010DF3501A24D96EF4501B20DA6E1CC01E
:1009600013F01DC014F0000E166E0A0E156E0CEC7E
:1009700005F01350DF6E1200000E186E000E176E99
:1009800015501610D8B41CD0010E196E04D0D89092
:1009900015361636192A16AEFAD7D89017361836E5
:1009A0001550135C16501458D8A005D01550135E7E
:1009B0001650145A1780D89016321532192EEDD7CA
:1009C00017C013F018C014F01200000E186E010EBC
:1009D000176E030E186401D012001750FF0A8A6EBA
:1009E0001850010DF3501424D96EF4501520DA6E0E
:1009F000DF50166E1650010D010EF324F66E080E30
:100A0000F420F76E0800F5CF8CFF182A010E69EC70
:100A100005F0D8901736DDD715501610D8B418D079
:100A2000010E176E04D0D89015361636172A16AE5A
:100A3000FAD71550135C16501458D8A004D015508E
:100A4000135E1650145AD89016321532172EF1D75D
:100A500013C013F014C014F01200F29E0F0EC16EFA
:100A6000070EB46E000E956EF00E936E880ED56E66
:100A7000F294F28AF1840B0ECD6E9E909D809F8041
:100A8000D08E2780F29CF28E12002DEC05F0230E02
:100A90001A6E000E1B6E20C01CF021C01DF0040E4B
:100AA0001E6E6CEC04F0230E146E000E156EE5EC59
:100AB00004F0EDD700EE20F0070EEE6AE806FDE147
:100AC00028902892000EF86E080EF76E000145EF90
:100AD00005F0136E04D027A0FED7279013061350FD
:060AE000D8B41200F8D7A3
:020000040020DA
:08000000FFFFFFFFFFFFFFFF00
:020000040030CA
:0E000000000C191EFF8181FF0FC00FE00F40A2
:00000001FF
