:04000000CDEF3FF011
:107F9A000001DDEF3FF0000E956E3C0E946E010E6F
:107FAA00C26E0E0EC16E3F0EC06E7F0E8B6E120039
:107FBA00D0EC3FF0C282C2A2FED7C4CF01F0330E8A
:107FCA00016002D0010E15D0660E016002D0020EC9
:107FDA0010D0990E016002D0040E0BD0CC0E0160B5
:107FEA0002D0080E06D0FA0E016002D0100E01D09F
:067FFA00200E8C6EDFD7A3
:020000040020DA
:08000000FFFFFFFFFFFFFFFF00
:020000040030CA
:0E000000000C191EFF8181FF0FC00FE00F40A2
:00000001FF
