:020000040000FA
:1010000072EC08F0000EF86E120EF76E000E8B6E8A
:10101000206E306E406E506E010E106E34EC08F093
:10102000102E0EEF08F0202A090E20640CEF08F0B5
:10103000000E206E302A090E30640CEF08F0000E0E
:10104000306E402A090E40640CEF08F0000E406E2E
:10105000502A090E50640CEF08F0000E206E306E1E
:10106000406E506E0CEF08F0800E8B6E2050F66EC6
:101070000800F55080098C6E5FEC08F0400E8B6E16
:101080003050F66E0800F55080098C6E5FEC08F069
:10109000010E8B6E8B8A4050F66E0800F550800969
:1010A0008C6E5FEC08F0020E8B6E8B885050F66EE3
:1010B0000800F55080098C6E5FEC08F01200050EF8
:1010C000806F67EC08F0802F61EF08F01200070EC8
:1010D000606FEC0E706F702F6BEF08F0602F69EF90
:1010E00008F012000F0EC16E070EB46EFF0E926E66
:0E10F000FF0E936E3C0E946E000E956E120075
:0210FE000000F0
:1012000040792430191202F8001808034621060E0E
:020000040030CA
:0100000000FF
:010001000CF2
:0100020019E4
:010003001EDE
:010005008377
:010006008574
:010008000FE8
:01000900C036
:01000A000FE6
:01000B00E014
:01000C000FE4
:01000D0040B2
:00000001FF
